:100000000C9454020C949B020C949B020C949B0243
:100010000C949B020C949B020C949B020C949B02EC
:100020000C949B020C949B020C948F310C946332C1
:100030000C946A260C949B020C949B020C949B02D9
:100040000C949B020C949B020C949B020C949B02BC
:100050000C949B020C94C1260C949B020C949B0262
:100060000C949B020C949B020C949B020C949B029C
:100070000C949B020C949B020C949B020C949B028C
:100080000C949B020C949B020C949B020C949B027C
:100090000C949B020C949B020C949B020C949B026C
:1000A0000C949B020C949B020C949B021E001F005C
:1000B00020002100220023002400250026412900E1
:1000C0002E022D00280025023800270037000100ED
:1000D0000100010001000100010001000100010018
:1000E0000100010001000100010001000100010008
:1000F00001000100010001000100010001000100F8
:1001000001000100010001000100010001000100E7
:1001100001000100010001000000000000000000DB
:100120002A2B280000000000000000000000000052
:1001300000000029000000002C1E3420212224345D
:100140002627252E362D3738271E1F20212223242F
:1001500025263333362E37381F0405060708090ACB
:100160000B0C0D0E0F101112131415161718191A67
:100170001B1C1D2F3130232D350405060708090AE5
:100180000B0C0D0E0F101112131415161718191A47
:100190001B1C1D2F3130354C0000000000000000FA
:1001A000000000000000000000000000000000004F
:1001B0000000000000000000000000007E0F00D4DE
:1001C000FFFFFFC700000078FD377A585A0000048F
:1001D000E6D6B4460200210116000000742FE5A304
:1001E000E000C100905D003D8889C65436C3174FBA
:1001F000E4D223E7A4DA045129D4E7CAC587588991
:10020000018F32FFD90BEE0292DDC848B503B8A3C7
:1002100015CBF9CD95A226FF0FBDD7E23C03DA1B23
:10022000447EB159FFBDE7F58B8E9DC8770CC7AAF8
:10023000FD0DD1B96C42C9612004B4B608E73E4C4B
:100240001F9A84A53177622A0D5C3AE8031C40535B
:1002500028A961FE645D825BC533E8CCC42DD877E4
:1002600082BD3B9EA183C68CB1C3D5ECFDB067AC0B
:1002700038B15C1FC3FFC200679B2E2ED276AFD869
:100280000001AC01C201000042606D4DB1C467FBCA
:10029000020000000004595A1C0376006900610046
:1002A0006C003A00660036003400630032006200E1
:1002B0003300630000001A033300780033005F004E
:1002C0004D006100630072006F0070006100640007
:1002D00000001C034B0069007300650072002000E1
:1002E000440065007300690067006E007300000041
:1002F000040309040902BF00050100A0FA09040073
:100300000001030101000921110100012240000741
:1003100005810308000A0904010002030000000926
:10032000211101000122220007058203200001079C
:100330000503032000010904020001030000000975
:1003400021110100012281000705840320000A0811
:100350000B03020101000009040300000101000079
:100360000924010001090001040904040002010339
:1003700000000724010001410006240201010006DB
:1003800024020202000924030103010201000924DE
:1003900003020401010100090506024000050000F6
:1003A000052501010109058502400005000005251C
:1003B0000101031201100100000008444B706D019F
:1003C00000010203010660FF0961A1010962150035
:1003D00026FF009520750881020963150026FF009D
:1003E000952075089102C005010902A10185020945
:1003F00001A10005091901290515002501950575BB
:10040000018102950175038101050109300931154A
:1004100081257F95027508810609381581257F950C
:100420000175088106050C0A38021581257F9501A2
:1004300075088106C0C005010980A1018503190165
:100440002AB700150126B700950175108100C00577
:100450000C0901A101850419012AA002150126A099
:1004600002950175108100C005010906A10105076B
:1004700019E029E71500250195087501810295010C
:10048000750881010507190029FF150026FF009551
:100490000675088100050819012905950575019162
:1004A00002950175039101C011241FBECFEFDAE060
:1004B000DEBFCDBF04B603FE27C080917C049091BF
:1004C0007D04A0917E04B0917F048730904BA740BB
:1004D000B04BD1F410927C0410927D0410927E04F3
:1004E00010927F0414BE84B7877F84BF0FB6F89440
:1004F000A8958091600088618093600010926000F0
:100500000FBEE0E0F8E3099511E0A0E0B1E0E4E01F
:10051000FAE602C005900D92A43BB107D9F724E09A
:10052000A4EBB1E001C01D92AC37B207E1F70E9425
:10053000432E0C94BD340C9400000C947E07CF9392
:10054000DF939C013A9521153F4168F5EC01CC27DA
:10055000D170DC01AA27B270AC01442754709C0111
:100560002227387094FF11C080E1CD2B09F480E080
:10057000AB2B09F08062452B09F08064232B09F036
:100580008068FB01DF91CF91099481E0CD2B09F4C4
:1005900080E0AB2B09F08260452B09F08460232BAF
:1005A00081F38860EECFDF91CF910895CF93DF93F1
:1005B000EC01805E9109089720F06EE17EE12097C2
:1005C00011F467E87BE1CE010E949F028C2FDF913E
:1005D000CF910C94EB1ACF93DF93EC010E94391B5F
:1005E000CE01805E9109089720F065E27EE12097B8
:1005F00011F46EE87BE1CE01DF91CF910C949F0264
:10060000CF93DF93EC010E94D6028FE39CE9019720
:10061000F1F700C00000CE01DF91CF910C94EB0206
:1006200081E0089581E008950C94120308950C94DC
:1006300016031F93CF93DF9300D000D00F92CDB756
:10064000DEB749835A836B833091080289819A818E
:1006500031111DC06623B9F02223A9F00E94352371
:10066000182F682F89819A810E94D82269817A8106
:10067000812F0F900F900F900F900F90DF91CF91DF
:100680001F910C9489120E940823182FEFCF0E940B
:10069000352369817A81EDCFFC01262F408151817C
:1006A0006281738184810C941903CF93DF93EC01F1
:1006B00060E00E944C03BE01DF91CF910C941703C0
:1006C0008F929F92AF92BF92CF92DF92EF92FF9262
:1006D0000F931F936B017C0181E090E0A0E0B0E0FC
:1006E0004C015D0104C0880C991CAA1CBB1C4A95D6
:1006F000D2F7B501A4014C015D0104C0880C991C1E
:10070000AA1CBB1C2A95D2F7482959296A297B299A
:1007100004C0880F991FAA1FBB1F0A95D2F78A0130
:100720009B010C211D212E213F21041715072607AF
:10073000370789F48C299D29AE29BF29BC01CD0139
:100740001F910F91FF90EF90DF90CF90BF90AF90EF
:100750009F908F90089580959095A095B0958C214D
:100760009D21AE21BF21EACF0F93382F262F609114
:100770004B0270914C0280914D0290914E02042FD9
:10078000432F0E9460030F910C9416220E945A0777
:100790000E94B7130C949D020E940F190E949C1690
:1007A0000C94800708950E94421E0E94D2032FEFEE
:1007B00084E39CE0215080409040E1F700C00000BD
:1007C0000C94E5260F931F93CF93DF93EC018B01DD
:1007D0000E946D18B801CE010E948F0C882309F485
:1007E0004FC0B801CE010E941403882309F448C009
:1007F000B801CE010E94B518882309F441C0B801A0
:10080000CE010E9442148823D9F1B801CE010E9482
:10081000C3168823A9F1B801CE010E94CC14882305
:1008200079F1B801CE010E941E15882349F1B80163
:10083000CE010E944116882319F1F8018281882394
:1008400061F0CA35FDE5DF0721F170F4C115ECE573
:10085000DE07A1F0CE3DDC45C9F0C801DF91CF91A4
:100860001F910F910C941003CB358DE5D807A1F0A3
:10087000CC35DD4591F70E940424EFCF0E94D303CD
:1008800080E0DF91CF911F910F9108950E94BE25C6
:10089000F7CF0E940D24E1CF0E941024DECFCF932A
:1008A000DF93EC0161E00E944C03BE01DF91CF9128
:1008B0000C94E203DF92EF92FF920F931F93CF937A
:1008C000DF93E82FF0E0E85EFE4FD490282F2695C6
:1008D0002695269530E0F901E854FE4F0491877083
:1008E00010E0082E02C0159507950A94E2F70170F2
:1008F0001127F901E855FE4FE490F12C082E02C0B3
:10090000F594E7940A94E2F791E0E922FF24F901D3
:10091000E856FE4FC491D0E002C0D595C7958A95A0
:10092000E2F7C170DD270115110519F081EE0E9473
:10093000EB1AE114F10419F086EE0E94EB1A8D2DEA
:100940000E947F1BEF2819F086EE0E94391B012BB5
:1009500019F081EE0E94391BCD2B51F08CE2DF9112
:10096000CF911F910F91FF90EF90DF900C947F1B20
:10097000DF91CF911F910F91FF90EF90DF9008953D
:10098000EF92FF920F931F93CF93DF93EC01162FFB
:100990000AE08881882309F454C0813009F04EC0F0
:1009A0008981813099F47E0122E0E20EF11C8A8176
:1009B0000E947F1BE7012196812F815050F3EFE9C0
:1009C000FFE03197F1F700C00000F7CF823041F42B
:1009D0007E0182E0E80EF11C8A810E94EB1AEACFC8
:1009E000833041F47E01E2E0EE0EF11C8A810E9428
:1009F000391BE0CF843011F02196DDCF2A81229679
:100A000090E080E0AE014F5F5F4F2053330B2A3000
:100A1000310548F0019778F2EFE9FFE03197F1F7FF
:100A200000C00000F7CF089FB001099F700D11248E
:100A3000C901860F971F2981EA01E4CF0E945A0459
:100A4000BACFDF91CF911F910F91FF90EF90089552
:100A500060E00C94C004982F9F709A50963018F064
:100A6000805D0C945A04895AFCCF08950C94350586
:100A700081E008950C943805CF93C82F0E94360565
:100A80008C2FCF910C943A0590E080E00895089562
:100A9000FC01EE0FFF1FE853FE4F859194910895DE
:100AA000CF93DF930E9489120E946506EC018115A5
:100AB00020E5920708F042C0811530E4930708F062
:100AC000BDC0883E910528F5803E910508F09DC087
:100AD000883A910588F4853A910508F08FC08130F5
:100AE000910509F492C0009709F48FC0049708F0AB
:100AF0008CC0D0E0C0E089C08F3B910508F489C06C
:100B0000805C9109C03CD105A0F30E944805EC012E
:100B10007CC08115904250F4C11581E0D80708F0DF
:100B200074C0C03FD10528F3D0656FC0C11590E3F4
:100B3000D90708F079C0CE019F70E7CF811525E570
:100B4000920758F5811534E5930708F0A6C0811582
:100B500042E5940750F4C11581E5D80708F471C047
:100B6000DC2FCC27C16FD06A50C0982F96959695F0
:100B70009E0123703327C115D34508F07FC0C1E023
:100B8000D0E002C0CC0FDD1F2A95E2F720E2929F51
:100B9000C0011124C82BD92B6FC0C11589E5D80716
:100BA000A8F4C11598E5D90708F07CC0C11526E561
:100BB000D20708F09ECF8C2F0E94FC06C82FD0E0F1
:100BC000DC2FCC27CC27DF71D0621FC0C1153AE5DE
:100BD000D30708F46CC0CE0190568115904208F0FE
:100BE00088CF8D2F8F710E94FC0690E0982F882768
:100BF00088279F719C012C2BE901E6CFC55AD0E0D4
:100C0000C55ADE4FC881D0E0D064CE01DF91CF91CC
:100C10000895C85AD0E0CC0FDD1FC35DDE4F0990A8
:100C2000D881C02DD464F1CFCE019927D3FF03C062
:100C3000EC01D86CEACFEC01D06CE7CFDF70D06A62
:100C4000E4CFCE01E4E096958795EA95E1F78370CD
:100C50002C2F26952695237090E2299F9001112430
:100C6000382B8C2F8370C1E0D0E002C0CC0FDD1F89
:100C70008A95E2F7C22BD32BDC68C7CFC1E0D0E066
:100C800002C0CC0FDD1F2A95E2F730E2939FC0012E
:100C90001124C82BD92BDA68B8CFD82FCC27C46F32
:100CA000D06AB3CFDC2FCC27C06FD06AAECF8C2FE9
:100CB0008F700E94FC0634E0D695C7953A95E1F70F
:100CC000CF709C2FEC01D069A0CF82389105B1F193
:100CD000B0F48133910509F475C048F48932910567
:100CE00009F469C08A32910509F473C00895853307
:100CF000910509F459C08933910501F10895833EA6
:100D00009105A9F138F4803E9105F9F0823E9105F4
:100D100049F10895863E9105A9F1873E9105C9F1F3
:100D2000843E910519F52091970221FF1FC0809103
:100D3000960284FD14C087EE90E0089520919602FB
:100D40002370A1F080EE90E008952091960220FD9E
:100D500047C03091970230FF09C024FF44C090E0A3
:100D600080E004C02091960222FDF7CF08952091E3
:100D7000960222FD3BC03091970230FDE3CF24FF65
:100D8000F5CFEDCF2091960223FFF0CF24FDE7CFE2
:100D9000D2CF2091960223FD2CC03091970231FFD3
:100DA000EECF84EE90E008952091960225FFDECFED
:100DB00089E290E008952091960225FFD7CF85E340
:100DC00090E008952091960226FFD0CF8AE290E02D
:100DD00008952091960226FFC9CF81E390E00895FF
:100DE00089E390E0089583EE90E0089582EE90E02C
:100DF000089586EE90E008959091960292FF06C0C5
:100E0000282F28712830F9F4877F846093FF06C06B
:100E1000282F28712831F1F4877E84612091970270
:100E200020FF06C0382F38713830D9F4877F8160B1
:100E300021FF06C0282F28712831D1F4877E8161D7
:100E400094FD877E0895282F24712430F9F68B7F36
:100E50008860DCCF282F2471243101F78B7E8861D4
:100E6000DDCF382F3171313019F78E7F8860E0CFB8
:100E7000282F2171213121F78E7E8861E1CF0C94DA
:100E8000690C0E94CC072FEF86E791E0215080404B
:100E90009040E1F700C000000E94CC0780E00E9473
:100EA000820780FF04C00E943F070C94E526089546
:100EB0000C9441070E941425811102C00E94BE2596
:100EC0000E941F25809365020E942C259093970213
:100ED000809396020E9458070E942325682F70E095
:100EE00090E080E00E94DA2160914B0270914C0208
:100EF00080914D0290914E020C9414220895089511
:100F00000C947F07E82FF0E0E556FD4F80810895AF
:100F1000089580EA8A95F1F7089500C008950C9429
:100F20008907F894E82FE295EF70F0E031A1282FBF
:100F30002F7081E090E001C0880F2A95EAF7982F82
:100F40009095932391A392A1892B82A378940895DD
:100F500084EF0E94910785EF0E94910787EF0E941E
:100F6000910786EF0E94910786E90E94910787E921
:100F70000E949107A8E9B2E01C92EBE9F2E010822E
:100F800011961C921197118212961C92128283E084
:100F90000E9443080C94C603CF92DF92EF92FF9217
:100FA0000F931F93CF93DF93C1E6D1E008E912E0DE
:100FB000D12CEE24E394F12C8991F894E82FE2955A
:100FC000EF70F0E021A18F70A70102C0440F551F00
:100FD0008A95E2F7CA01922F982B91A392A180954E
:100FE000892382A378940E948D07EEE5F1E030E03A
:100FF00020E0C12C4191A42FA295AF70B0E0909653
:101000008C9190E04F7002C0959587954A95E2F7D4
:1010100080FD35C08E2D022E01C0880F0A94EAF79C
:10102000C82A2F5F3F4F2330310521F7FE0131974A
:1010300080810E9491070E948F07F8018081C81665
:1010400001F1C08281E0D82A0F5F1F4FF1E0C43662
:10105000DF0709F0B1CF2D2D43E06BE972E088E99D
:1010600092E00E9444080E94CC038D2DDF91CF9125
:101070001F910F91FF90EF90DF90CF90089580E047
:10108000CFCF80E0E0CF0895FF920F931F93CF93CF
:10109000DF93F82E092F162FD72FC42F222349F0C4
:1010A00081E08093B8010E949A269093B7018093C3
:1010B000B6018091B8018823A1F08091B60190918A
:1010C000B7010E94B226069760F0EF2DF02FA12FF6
:1010D000BD2FCE0FDF2FD11DEC17FD0741F410926D
:1010E000B801DF91CF911F910F91FF9008958191E9
:1010F0008D93F2CFEF92FF920F931F93CF93DF93D5
:10110000CDB7DEB7AC970FB6F894DEBF0FBECDBF3C
:10111000962FBA012132310598F540EF49831A82A2
:101120001B821C82790142E0E40EF11C0CE210E00B
:101130000E191F09E1E0F0E0EC0FFD1F0E0F1F1F5D
:10114000F80180839183A901C80102960E9453345B
:10115000A701B801CE0105960E942D2AE5E0F0E036
:10116000EC0FFD1FE80FF91F27EF2083BC016B5F19
:101170007F4FAE014F5F5F4F82E893E00E944227AE
:10118000AC960FB6F894DEBF0FBECDBFDF91CF9106
:101190001F910F91FF90EF9008950E944334FA0140
:1011A0006083718382839383089581E008950C9412
:1011B000D5080C94D708EF92FF920F931F93CF930B
:1011C000DF9300D000D0CDB7DEB7F82EE92E8B012B
:1011D0000E94D9088823A9F0D8018C918233E0F4C9
:1011E000803378F4813169F040F4803111F12F2D92
:1011F0003E2DA80160E080E83FC08032A1F081323E
:10120000B1F70F900F900F900F90DF91CF911F913A
:101210000F91FF90EF900895803448F3823488F363
:10122000803829F7EECFF8018181823069F084306F
:10123000B9F0D8011196EC91E150ED3010F7F0E0E3
:10124000E154FB4C0C943D3412968C910E9427255E
:10125000F801628170E090E080E00E94DA21E9CF3D
:1012600012968C9190E00E943A25E3CF30E020E086
:1012700050E040E061E081E10E947A08C2CF82E064
:1012800090E00E947334898321E030E0AE014F5F2B
:101290005F4F68E0F0CF83E090E00E947334898371
:1012A00021E030E0AE014F5F5F4F62E0E4CF60913C
:1012B0004B0270914C0280914D0290914E02AE0112
:1012C0004F5F5F4F0E94CD0824E030E0AE014F5FDA
:1012D0005F4F63E0D0CF30E020E050E040E069E0D5
:1012E000CACF30E020E050E040E065E0C4CF30E01D
:1012F00020E050E040E066E0BECF0E942C258983CC
:1013000021E030E0AE014F5F5F4F64E0B4CF83E097
:1013100089838A8322E030E0AE014F5F5F4F6DE04A
:10132000AACF82E893E00C946F298091BF0180FFDF
:1013300012C06091050185E0689FB0011124759588
:1013400067957595679560387105A8F56115710504
:10135000A1F1862F089581FF09C06091050185E004
:10136000689FB001112475956795EDCF60910501D7
:1013700082FD0AC08091BE018823D1F090910401C2
:1013800060910501891728F085E0689FB00111245C
:10139000DACF869FB001112485E0869F9001879F58
:1013A000300D1124692F70E0C9010E942934CBCF80
:1013B00065E070E0CECF8FE7089581E008958091D9
:1013C000BF0180FF0CC06091010170E075956795C9
:1013D000759567956115710549F1862F089581FF0F
:1013E00006C06091010170E075956795F3CF60913B
:1013F000010182FD0BC09091BD019923A1F0609184
:10140000000180910101961738F0682F70E0603874
:10141000710500F38FE70895899FC001112470E0E2
:101420000E942934F4CF61E070E0D7CF81E00895C5
:10143000803F31F40E94950981958093C3010895FE
:10144000813F19F40E949509F8CF823F31F40E9440
:10145000950981958093C2010895833F19F40E94F4
:101460009509F8CF893F29F40E94DF098093C401D0
:1014700008958A3F21F40E94DF098195F7CF8B3FC1
:1014800031F40E94DF0981958093C50108958C3F56
:1014900019F40E94DF09F8CF843F31F48091C10133
:1014A00081608093C1010895853F21F48091C1013D
:1014B0008260F7CF863F21F48091C1018460F1CF33
:1014C000873F21F48091C1018860EBCF883F21F4F0
:1014D0008091C1018061E5CF8D3F31F48091BF01E2
:1014E00081608093BF0108958E3F21F48091BF01F8
:1014F0008260F7CF8F3FB9F78091BF018460F1CF51
:101500009091C201803F59F48091C30187FF0DC0C3
:101510001092C30191110BC01092BE0108C0813F0F
:1015200081F48091C30118169CF3992381F0809176
:10153000C4019091C501892B09F064C01092BD01CE
:101540000895823F49F497FFF0CF1092C201809135
:10155000C3018111ECCFE0CF833F19F41916ACF32E
:10156000E4CF2091C401893F29F41216F4F61092B9
:10157000C401DBCF8A3F19F427FFD7CFF8CF2091E2
:10158000C5018B3F29F427FFD0CF1092C501CDCFE5
:101590008C3F19F41216CCF3C8CF843F31F48091FC
:1015A000C1018E7F8093C101C0CF853F21F480911E
:1015B000C1018D7FF7CF863F21F48091C1018B7FE0
:1015C000F1CF873F21F48091C101877FEBCF883F26
:1015D00021F48091C1018F7EE5CF8D3F31F4809160
:1015E000BF018E7F8093BF01A0CF8E3F21F48091F9
:1015F000BF018D7FF7CF8F3F09F097CF8091BF015B
:101600008B7FF0CF08950E949A269C019091C20191
:101610008091C301982B21F03093BC012093BB0132
:101620009091C4018091C501982B21F03093BA01AB
:101630002093B90180EC91E00C948719EF92FF920E
:101640000F931F93CF93DF9300D000D000D0CDB77E
:10165000DEB786E0E0ECF1E0DE01119601900D923C
:101660008A95E1F7E090C201F090C3010091C401B6
:101670001091C5011092C2011092C3011092C401D1
:101680001092C5018E2D8F2991F08091BB01909110
:10169000BC010E94B226AC019091BE01992309F4CD
:1016A0003FC0809106018417150608F447C0802FBB
:1016B000812B91F08091B9019091BA010E94B226DC
:1016C000AC019091BD01992309F477C0809102018A
:1016D0008417150608F47FC08091C2019091C30160
:1016E000892B9091C401892B9091C501892B11F010
:1016F0000E94030B86E0FE013196A0ECB1E0019060
:101700000D928A95E1F726960FB6F894DEBF0FBECC
:10171000CDBFDF91CF911F910F91FF90EF90089572
:10172000209107018AE0289F900111242417350792
:1017300008F0BDCF9F5F9093BE0102C09F3FD1F7DD
:10174000EE2059F00E9495099FEF1E140CF491E0D1
:10175000899F802D11248093C201FF2059F00E949F
:1017600095099FEF1F140CF491E0899F802D11249F
:101770008093C3013091C201332309F498CF2091A3
:10178000C301222309F493CF45EB3403C001112494
:10179000992359F09093C20145EB24039001112441
:1017A000332339F03093C30182CF81E08093C201AB
:1017B000F3CF81E08093C3017ACF209103018AE0C7
:1017C000289F900111242417350708F085CF9F5FCB
:1017D0009093BD0102C09F3FD1F7002359F00E94B2
:1017E000DF099FEF10160CF491E0899F802D1124E2
:1017F0008093C401112359F00E94DF099FEF111655
:101800000CF491E0899F802D11248093C5013091C3
:10181000C401332309F460CF2091C501222309F4C8
:101820005BCF45EB3403C0011124992359F0909309
:10183000C40145EB240390011124332339F0309384
:10184000C5014ACF81E08093C401F3CF81E080934A
:10185000C50142CF86E0E0ECF1E0DF011D928A9500
:10186000E9F71092BE011092BD011092BF010895D8
:1018700083E290E00E9473348E3889F484E290E031
:101880000E947334833059F485E290E00E947334EF
:1018900091E0873509F090E0892F8170089580E00C
:1018A000FCCFCF93C82F6FEF81116EE883E290E0F9
:1018B0000E9481346FEFC11163E084E290E00E94E6
:1018C00081346FEFC11167E585E290E0CF910C9410
:1018D000813480E00E94510C0C940E25089586E21C
:1018E00090E00E947334682F70E090E080E00895EB
:1018F00086E290E00C9481340E946E0C0E94380CB9
:1019000081110CC060E070E0CB010E94780C0E9455
:10191000AE110E94FC1281E00C94510C0895CF93FB
:10192000FB01C281CC2309F19C0122513F452031AA
:10193000310520F582510E940C13C0E08C2FCF910D
:10194000089581E00E943C2243E062E081E00E9431
:10195000B403F3CF81E00E945D2243E062E081E0C6
:101960000E94B403EBCF82E0F6CF8031FFE59F0702
:1019700089F381319F45B9F3C1E0E0CF8031EFE5D4
:101980009E07F9F281319F45C9F682E0DBCF2FEF48
:10199000FC01208308951F93CF93DF93EC01162F52
:1019A00088812091DA013091DB01232B79F08E3F81
:1019B00009F057C08981833020F08550833008F0CA
:1019C00050C0612FCE010E94AF0F4BC08C3009F484
:1019D0009CC0D0F4843009F47FC060F4823009F4F4
:1019E00047C008F06CC08130C9F1612FCE010E9460
:1019F000C70C37C0863009F485C008F478C08A3037
:101A0000A0F78FEF88832DC0803109F49BC0D8F4F4
:101A10008E3009F486C008F47CC080910801909152
:101A20000901892BF1F06B8170E06D317105C8F40B
:101A300089819A81AE014C5F5F4F9827892798274B
:101A40000E94D1120EC0823109F482C008F47DC018
:101A5000833109F48EC08E3F41F6B3CF198289E0FD
:101A60008A83612FCE01DF91CF911F910C94242D99
:101A70008981823071F0833079F0813009F0B5CFFF
:101A80000E94A6260E9443346A837B838C839D83B5
:101A9000E8CF0E946F0CF6CF809108019091090168
:101AA000892BF9F280E00E9482078A8381E00E94FC
:101AB00082078B8382E00E9482078C83D2CF898148
:101AC000823009F092CF6A817B818C819D810E9456
:101AD00043340E94780CC5CF4B816A8189810E9472
:101AE00014119827892798279D838C83BACF2C813E
:101AF0003D813227232732274B816A8189810E94C9
:101B00003611AFCF0E94AE11ACCF0E94A5128983CF
:101B1000A8CF0E94A7129827892798279A8389839C
:101B2000A0CF6B8170E06D31710508F09ACF89818B
:101B30009A81AE014C5F5F4F9827892798270E94B2
:101B4000AA128FCF0E94FC128CCF0E940211DFCF0D
:101B50006B8170E06D31710508F083CF89819A81C6
:101B6000AE014C5F5F4F9827892798270E9431125A
:101B700078CF6B8170E06D31710508F072CF89818B
:101B80009A81AE014C5F5F4F9827892798270E9462
:101B9000561267CF8F929F92AF92BF92CF92DF92F1
:101BA000EF92FF920F931F93CF93DF93CDB7DEB7E2
:101BB0002A970FB6F894DEBF0FBECDBF0EE912E034
:101BC000F12CE12C86EEC82E8EE0D82E90E1A92EC5
:101BD0009FE0B92E2FE4822E2EE0922EF801D182C2
:101BE000C082B382A28295828482F58AE48ABE0191
:101BF0006F5F7F4F8E2D0E945E11892B29F489859E
:101C00009A85F801938B828BFFEFEF1AFF0A0A5E29
:101C10001F4F88E0E816F10409F72A960FB6F894EA
:101C2000DEBF0FBECDBFDF91CF911F910F91FF900F
:101C3000EF90DF90CF90BF90AF909F908F900895DE
:101C4000CF93DF9300D000D00F92CDB7DEB7909343
:101C5000770380937603811520E2920748F40F9072
:101C60000F900F900F900F90DF91CF910C94EB029B
:101C70008EEF89838A831B820E949A268160782F47
:101C80009D838C8349815A816B818D810F900F9048
:101C90000F900F900F90DF91CF910C94A51A0F9396
:101CA0001F93CF93DF938C01EB0166EC71E08C2FD7
:101CB0000E945E11892BA1F48FE39CE90197F1F753
:101CC00000C00000DD27C053DE4F8881F80110827C
:101CD0001882833009F148F4813059F0823081F064
:101CE000DF91CF911F910F9108958430D1F085300D
:101CF000B9F78091C6019091C701009789F306C09A
:101D00008091C8019091C901009799F3DF91CF911B
:101D10001F910F910C94200E8091CA019091CB01DC
:101D2000F3CF8091CC019091CD01009779F720916C
:101D3000C6013091C7018091C8019091C901211558
:101D40003105D9F2009711F7C901E0CFCF93DF93A6
:101D500000D000D00F92CDB7DEB790937703809379
:101D60007603811520E2920748F40F900F900F90B0
:101D70000F900F90DF91CF910C94D6028EEF898354
:101D80008A8381E08B830E949A268160782F9D83CD
:101D90008C8349815A816B818D810F900F900F90B8
:101DA0000F900F90DF91CF910C94A51ACF93DF93F2
:101DB000EC010E94A60E8FE39CE90197F1F700C0A9
:101DC0000000CE01DF91CF910C94200E0F931F9352
:101DD000CF93DF938C01862F66EC71E00E945E1139
:101DE000892BC9F4C091C601D091C701209799F001
:101DF000F8018081833069F4CE010E94D60ECE01B5
:101E00000E94D60ECE01DF91CF911F910F910C94BD
:101E1000D60E8430B8F7DF91CF911F910F910895BE
:101E20000F931F93CF93DF938C01EB0166EC71E06E
:101E30008C2F0E945E11892B09F064C0FE01FF27E0
:101E4000D8018C91E053FE4F8130D9F419969C91C2
:101E50001997992311F080830CC01A969C919923AD
:101E6000D1F382E080838091C8019091C9010097ED
:101E7000D9F48091C6019091C701009709F442C03E
:101E800013C08230E9F519968C91199781112DC0F4
:101E90001A968C9181110EC083E080838091CA01D3
:101EA0009091CB01009719F1DF91CF911F910F9184
:101EB0000C94A60E84E080838091CC019091CD019A
:101EC000009791F78091C6019091C7010097F9F0B2
:101ED0000E94D60E8091C8019091C901009721F708
:101EE0008091C6019091C701DFCF85E0808380910A
:101EF000C6019091C701009729F00E94D60EF0CF3D
:101F000086E08083DF91CF911F910F91089580919A
:101F1000C8019091C901B1CF0E94CA0DEEE4F3E06F
:101F20001182108281E090E09683858382E090E0C8
:101F30009387828783E090E0908B878784E090E0AE
:101F4000958B848B85E090E0928F818F86E090E086
:101F5000978F868F87E090E094A383A30895CF9214
:101F6000DF92FF920F931F93CF93DF93CDB7DEB72E
:101F70002A970FB6F894DEBF0FBECDBF8C0160323A
:101F800069F5DC011196EC911197EE3038F5F0E02F
:101F9000E453FB4C0C943D3488E0E5E2F1E0DE01D3
:101FA000119601900D928A95E1F780E2F801119265
:101FB0008A95E9F784E0D8018C9311961C921197C9
:101FC00012961C92129713961C92139788E0FE01AA
:101FD0003196149601900D928A95E1F72A960FB6E4
:101FE000F894DEBF0FBECDBFDF91CF911F910F914F
:101FF000FF90DF90CF90089580EDF80180831182EB
:1020000012821382EBCF13968C911397682F70E096
:10201000762F662712968C91860F972F911D092E89
:10202000000CAA0BBB0B45E0880F991FAA1FBB1F12
:102030004A95D1F7AC01BD01405E5F4F6F4F7F4FB6
:10204000481759076A077B0748F2803D9105A105AB
:10205000B10520F6413D51056105710520F040EDC7
:1020600050E060E070E0481B590BBC0168537E4FA4
:10207000C8010E944A34B2CF40E250E06FEF70E0F6
:102080000E945C3480910801F80180838091DA011C
:102090008183A4CF81E090E09093DB018093DA010B
:1020A00082E390E09093D9018093D8010E949A2610
:1020B00095CF809108018C938091DA0111968C93D1
:1020C00011978091D80112968C9388CF40E250E00E
:1020D0006FEF70E02A960FB6F894DEBF0FBECDBF4B
:1020E000DF91CF911F910F91FF90DF90CF900C94D3
:1020F0005C34FC0182818230D9F1E0F4882389F1DB
:10210000813009F06BCF13968C912AE0F22EFE01FC
:1021100031966F01DF01EF2D1D92EA95E9F7B601C7
:102120000E945E11D8018D93F60101900D92FA94F0
:10213000E1F754CF833081F1843009F04FCF13960B
:102140008C919AE03496DE01119601900D929A9549
:10215000E1F7BE016F5F7F4F0E949A11F801808303
:102160003DCF80E21D928A95E9F788E0808390CF89
:1021700013968C919AE03496DE01119601900D929F
:102180009A95E1F7BE016F5F7F4F0E947211F801CF
:1021900080830E94CA0D22CF13968C919AE0F92E6B
:1021A000FE0131966F01DF01EF2D1D92EA95E9F7EF
:1021B000B6010E948611B6CF1F93CF93DF93CDB7A0
:1021C000DEB72A970FB6F894DEBF0FBECDBF162F2D
:1021D000BE016F5F7F4F0E948611892B31F4898584
:1021E0009A85112361F00E94A60E2A960FB6F894E4
:1021F000DEBF0FBECDBFDF91CF911F9108950E942A
:10220000200EF3CF86E0089550E0440F551F96E06E
:10221000699F400D511D112492E1899F400D511D70
:102220001124CA01879608950F931F93CF93DF93CC
:102230008630C8F46330B8F44330A8F40E94041127
:102240008C010E947334C82FD0E0DC2FCC27C8014A
:1022500001960E9473349E01282BC901DF91CF9112
:102260001F910F91089590E080E0F8CF0F931F9396
:10227000CF93DF93E9018630E0F46330D0F443304C
:10228000C0F421153C4531F4209108013091090139
:10229000232B79F00E9404118C016D2F0E94813450
:1022A0006C2FC8010196DF91CF911F910F910C9473
:1022B0008134DF91CF911F910F9108959B01883058
:1022C00070F49AE0899FB00111246D567F4F4AE067
:1022D00050E0C9010E94633490E080E008958FEFE0
:1022E0009FEF08959B01883070F49AE0899FB001B8
:1022F00011246D567F4F4AE050E0C9010E94A53479
:1023000090E080E008958FEF9FEF08959B01883063
:1023100070F49AE0899FB00111246D517F4F4AE01B
:1023200050E0C9010E94633490E080E008958FEF8F
:102330009FEF08959B01883070F49AE0899FB00167
:1023400011246D517F4F4AE050E0C9010E94A5342D
:1023500090E080E008958FEF9FEF08957F928F9235
:102360009F92AF92BF92CF92DF92EF92FF920F9324
:102370001F93CF93DF93CDB7DEB764970FB6F89472
:10238000DEBF0FBECDBFA0900801B090090181E073
:1023900090E090930901809308018CEAC82E80E0B8
:1023A000D82E00E0760110E015C0F401259134919B
:1023B000472D612F802F0E94361182E0880E911CDC
:1023C000739493E07912F1CFE6E0EE0EF11C1F5FFB
:1023D000133019F04701712CE8CF0F5FF2E1CF0EF7
:1023E000D11C0630F9F61C861B861E861D86188AAF
:1023F0001F861A8A198A88EC90E09C8B8B8B10E0E0
:10240000BE01655F7F4F812F0E9472111F5F1830E0
:10241000B9F7CE0101967C018AE0F70111928A9505
:10242000E9F710E0B701812F0E949A111F5F183061
:10243000C9F7B0920901A092080164960FB6F8940A
:10244000DEBF0FBECDBFDF91CF911F910F91FF90E7
:10245000EF90DF90CF90BF90AF909F908F907F9044
:102460000895EF92FF920F931F93CF93DF93EC01A8
:102470008A017C01E60EF71ECE018796CE15DF0598
:1024800039F4DF91CF911F910F91FF90EF90089554
:10249000CC36D10540F40E947334F80180830F5F7D
:1024A0001F4F2196E9CFF8011082F9CFCF92DF922A
:1024B000EF92FF920F931F93CF93DF938C016A01EA
:1024C0008C36910580F48CE690E0801B910B86178A
:1024D000970748F07801E60EF71EE801CE018796CF
:1024E000CE15DF0549F4DF91CF911F910F91FF9039
:1024F000EF90DF90CF900895CC36D10540F4FE01E7
:10250000E01BF10BEC0DFD1D60810E9481342196D2
:10251000E5CF462F2091DA013091DB01232B91F496
:102520007E3F39F46E3F71F480917603909177038A
:102530000895863038F4733028F4633018F4672F28
:102540000C94141190E080E0089580E108958DECE2
:1025500092E00895EF92FF920F931F93CF93DF9332
:10256000EC018A017C01E60EF71ECE018D5C9E4FC8
:10257000CE15DF0539F4DF91CF911F910F91FF90B8
:10258000EF900895CD3C22E0D20740F40E947334CE
:10259000F80180830F5F1F4F2196E7CFF80110826B
:1025A000F9CFCF92DF92EF92FF920F931F93CF93C9
:1025B000DF937C016A018C01060F171FEC01CE012D
:1025C0008D5C9E4FC017D10749F4DF91CF911F91C9
:1025D0000F91FF90EF90DF90CF900895CD3C22E0D7
:1025E000D20740F4FE01EE19FF09EC0DFD1D6081DC
:1025F0000E9481342196E3CFCF93DF93C3E3D1E0F0
:1026000060E0CE010E9481342196C11584E0D80794
:10261000B9F7DF91CF910895BF92CF92DF92EF92F9
:10262000FF920F931F93CF93DF9300D000D0CDB7CD
:10263000DEB7F82E2FE0281740F08FEF93E00E94CE
:10264000733403E311E08823D1F00F900F900F90C3
:102650000F90DF91CF911F910F91FF90EF90DF903E
:10266000CF90BF900895011544E0140771F3C8019D
:102670000E947334811101C0FA940F5F1F4FF11053
:10268000F2CF19821A821B821C82BB24BA94780171
:102690005FEFE51AF50AC8010E94733489831A8234
:1026A000882399F2813009F047C0680182E0C80EA2
:1026B000D11CC7010E947334E82E8A83882329F233
:1026C000C6010E947334F82E8FEF8E0D833068F4AC
:1026D0006801E3E0CE0ED11CFB82FF2021F0CE0189
:1026E00001960E9428058601D2CFF4E0EF12FBCFBD
:1026F000680124E0C20ED11CC80103960E94733405
:10270000FF2009F4A2CF882309F49FCF8150990BB1
:10271000B89E9001B99E300D11244F2D4150550B9C
:10272000CA01820F931F0197F0F2EFE9FFE03197A2
:10273000F1F700C00000F7CFCE0101960E942805F6
:102740006701D1CFCF93DF93EC0197FF0CC0FB0162
:102750008281882341F00E94CD13CE019F770E9491
:1027600027140E94081481E0DF91CF9108958CE036
:1027700090E00E94733490E0B0E0A0E08093780392
:1027800090937903A0937A03B0937B0308956091AB
:1027900078038CE090E00C9481340E946F19869548
:1027A000817080937D0390917803913029F4882380
:1027B00019F089E30E947F1B0E94132480937C03FD
:1027C0000E94262480917803813089F0882359F073
:1027D000823091F08430B9F08FE39CE90197F1F7F2
:1027E00000C00000089582EE0E94EB1AF5CF88E148
:1027F00093E00E940003F0CF82EE0E94EB1A87E57F
:102800000E947F1BE9CF86EE0E947F1B88E1F8CFF4
:1028100080917803813071F0882341F0823031F06B
:10282000843099F080917C030C94232482EE0E94E2
:10283000391BF8CF8CE20E947F1B80917D03882397
:1028400089F389E30E947F1BEDCF88E2FBCF0F93D2
:102850001F93CF93DF938C01CCE0D0E0C8010C2E06
:1028600002C0969587950A94E2F78F700E942B0517
:102870002497CC3F8FEFD80789F7DF91CF911F9135
:102880000F9108950F931F93CF93DF93EC018B016A
:10289000FB018281882361F00E941324CE01815EB6
:1028A0009C458530910520F4809378030E94C713DE
:1028B000B801CE01DF91CF911F910F910C94A2131B
:1028C0000F931F93CF93DF93C42FD22FFC018281EC
:1028D0008823C9F04093DE010E949A269093DD017F
:1028E0008093DC0180E28C0F883008F050C0C77004
:1028F00081E001C0880FCA95EAF7DF91CF911F915F
:102900000F910C94871B1091DE01141335C0809138
:10291000DC019091DD010E94B226883C910560F5B2
:10292000C0E2CD0F1D17B9F080E2810F883040F46E
:10293000177081E001C0880F1A95EAF70E948E1B7C
:10294000C83048F481E09D2F977001C0880F9A9598
:10295000EAF70E94871B802F0E947F1BC830B8F4C3
:10296000D77081E001C0880FDA95EAF7DF91CF9147
:102970001F910F910C948E1B80E28C0F883038F4DD
:10298000C77081E001C0880FCA95EAF7EFCFDF91E9
:10299000CF911F910F9108950F939C01CB01233F7D
:1029A0004CE5340759F1A8F4283DFCE53F0701F157
:1029B000293D4CE53407D1F1273D3C4591F406E231
:1029C00021EE41EE67ED7CE50E94601480E00F91FE
:1029D0000895253FFCE53F07E9F0B0F0263F3C4570
:1029E000F9F0FC018281882339F11092DE01EFCFEA
:1029F00007E225EE45EE68ED7CE5E6CF06E221EE46
:102A000040EE63EF7CE5E0CF07E225EE44EE64EFB5
:102A10007CE5DACF06E221EE42EE65EF7CE5D4CF2D
:102A200007E225EE46EE66EF7CE5CECF08E221E038
:102A300045EE69ED7CE5C8CF81E0C9CFCF93DF9348
:102A4000EC01FB018281882309F419C1C230FCE545
:102A5000DF07C0F1C6319CE5D90730F09E012A5F3F
:102A60003C452930310570F50E942C259093970242
:102A700080939602C031ECE5DE0709F4CFC008F080
:102A80005BC0C8308CE5D80709F4B6C088F5C430FF
:102A9000ECE5DE0709F4A8C0C0F4C2308CE5D80725
:102AA00009F49CC0809196028260C330DC4509F431
:102AB00098C080919602909197020E943A250E94B8
:102AC000421E80E0DF91CF9108958091960280614F
:102AD000C630ECE5DE0709F484C080919602886078
:102AE000C730DC4508F47DC080919602806279C0D1
:102AF000CC308CE5D80709F489C070F48091960237
:102B00008C60CA30ECE5DE0709F46BC008F478C0CD
:102B1000809196028E7F65C0CE308CE5D80709F48F
:102B200079C0809196028B7FCF30DC4508F459C084
:102B3000809196028F7E55C0CB3FECE5DE0709F40D
:102B400057C030F5C3318CE5D80709F46FC078F46D
:102B5000C131ECE5DE0709F465C0C231DC4509F09E
:102B6000A8CF0E94421E809196028F773AC0C5314D
:102B70008CE5D80709F462C008F476C0809197020A
:102B80008160CA3FDC4509F094CF8093970291CFD2
:102B9000CF3FFCE5DF0709F44DC088F48091970230
:102BA0008D7FCD3F9CE5D90781F3809197028E7F81
:102BB000CE3FDC4550F3809197028360E6CFC13071
:102BC000FDE5DF0709F459C008F444C080E0C230D5
:102BD000DD4509F06ECF0E94C0256BCF8091960233
:102BE00081608093960265CF809196028460F9CFD0
:102BF000809197028260C9CF809196028064F1CF64
:102C00000E94421E809196028068EBCF80919602CE
:102C10008D7FE7CF80919602877FE3CF80919602E8
:102C20008F7DDFCF809196028F7BDBCF80919602E4
:102C3000837FD7CF809197028C7FA7CF8091960218
:102C400082FB992790F921E0922790FB82F990FB73
:102C500083F9C7CF80919702982F909591708E7FBE
:102C6000892B90FB81F991CF0E94421E9091960290
:102C7000892F97FB87F98058B4CF81E0ACCF81E0F2
:102C800021CFCF93DF93EB0186319C4511F50E9454
:102C900013249A81992399F08A7A91E009F490E0BB
:102CA0009093DF01811109C089E20E94A5230E944F
:102CB0008E2480E0DF91CF91089585E3F6CF809157
:102CC000DF01811104C089E20E94AC23F0CF85E3CB
:102CD000FBCF81E0EFCFEEE4F3E083E0E637F807E7
:102CE00039F488E090E09093F1018093F001089529
:102CF000848187FF14823596F0CFCF939091EE01B7
:102D0000992321F0811116C01092EE01CF91089500
:102D1000EC2FF0E0EE0FFF1FE052FE4F808191811B
:102D20000E94D6020E948E24CF5F8091EE01C817C8
:102D300078F3EACFC0E0F9CF80910A01882381F0CF
:102D40008091F2019091F301009751F00E94B22618
:102D5000893C910528F081E00E947D160C946B1649
:102D6000089510920A011092F3011092F20181E08D
:102D70000C947D1680910A0181110C94B11681E0AA
:102D800080930A0108952F923F924F925F926F9223
:102D90007F928F929F92AF92BF92CF92DF92EF92EB
:102DA000FF920F931F93CF93DF93CDB7DEB72A9790
:102DB0000FB6F894DEBF0FBECDBF7C016B01873F1D
:102DC0004CE5940709F5FB011281112391F181E093
:102DD00080930A01812F2A960FB6F894DEBF0FBEAA
:102DE000CDBFDF91CF911F910F91FF90EF90DF90BA
:102DF000CF90BF90AF909F908F907F906F905F909B
:102E00004F903F902F900895883FFCE59F0739F43D
:102E1000FB011281112369F00E94B116DBCF893FBB
:102E20009C4539F4FB011281112319F00E94BA1656
:102E3000D1CF40900A0111E0442061F21092F101DB
:102E40001092F00110E095E0392E88248394912CA3
:102E500022242394A090F001B090F101F8E0AF1685
:102E6000B10480F08091EF01882309F4B2C00E9480
:102E70009A269093F3018093F2011092EF0181E082
:102E80001827A8CF3A9CF0013B9CF00D1124E25B7F
:102E9000FC4FBE016F5F7F4F80810E948611892B9E
:102EA00061F000E0102B8091F0019091F10101960A
:102EB0009093F1018093F001CDCFFE01319690E027
:102EC00080E055245A94282F419151914115510584
:102ED00089F1E416F50609F4582E0196843091051F
:102EE00091F724E0FFEF5F16E1F2F60102813A9CD0
:102EF000C0013B9C900D1124AC01425B5C4F3A0138
:102F0000FA018481A40102C0440F551F2A95E2F7FB
:102F10009A0121503109002349F1A40101C0440F55
:102F20005A94EAF7842B84838F778217130631F043
:102F3000042DB8CF823008F4B4CFD4CF80E00E9403
:102F40007D16F30184818068848382819381009758
:102F500029F00E94D6022092EF01A4CF61E0809177
:102F6000F0019091F1010E94DC10F5CF8F7782176C
:102F7000130631F482819381009719F10E94EB02CC
:102F80003A9CF0013B9CF00D1124E25BFC4F448124
:102F9000242F30E0052C02C0359527950A94E2F7DE
:102FA00020FF7FCFC40101C0880F5A94EAF78095B3
:102FB0008423848387FF75CF803809F0B9CF1482CA
:102FC000B7CF60E08091F0019091F1010E94DC1098
:102FD000D7CF111106C081E00E947D160E946B16AA
:102FE0004ECFF6018281882309F449CF0E949A26A8
:102FF0009093F3018093F201E091EE01E73008F045
:103000003ECF81E08E0F8093EE01F0E0EE0FFF1FC8
:10301000E052FE4FF182E08232CFCF93DF93EC019A
:1030200081E0898B8F810E94162488850E942C2440
:103030000E948E24EA81FB81309739F06C897D896A
:10304000CE010696DF91CF910994DF91CF9108953B
:10305000EF92FF920F931F93CF93DF93EC018A853A
:10306000811134C0EB80FC8087E5F81A26E12E9DA3
:10307000C0012F9D900D1124DC01A256BD4F149666
:10308000ED91FC911597309731F054966D917C91AC
:103090008C559D4F099586E18E9D80018F9D100D69
:1030A000112402561D4FF80187810E941C24F8014B
:1030B00080850E9432240E948E24188219861B86E5
:1030C0001E821D821092F5011092F401DF91CF91C2
:1030D0001F910F91FF90EF900895DF92EF92FF9272
:1030E0000F931F93CF93DF937C01FB018281882391
:1030F00091F080910B018F3F71F0CEE9D2E010E0AA
:1031000000E0DD24D39480910B01082E000C990B74
:103110008017910744F4DF91CF911F910F91FF9099
:10312000EF90DF9008958E818823D9F089859A8564
:103130008E159F0539F48091F4019091F5018E155B
:103140009F0579F0DF86FC86EB868989811103C0B3
:10315000CE010E940D18CE0106960E9428180E94EA
:1031600039240F5F1F4F6696CECFEF92FF920F93D9
:103170001F93CF93DF937C0197558F3F910509F003
:10318000D8F520910B01022E000C330B28173907BC
:1031900014F480930B01FB01228136E1389F8001FA
:1031A000399F100D1124E801C256DD4F288B928102
:1031B0008E81992349F1FA86E9868F5F8E830E947A
:1031C0009A269E878D870E944C248F830E94132409
:1031D00088870E9429249885892B8887E881F9812E
:1031E000309731F06C897D89C8018C559D4F0995C8
:1031F000F092F501E092F40181E0DF91CF911F910F
:103200000F91FF90EF9008958823B1F38989882367
:1032100099F3C8018C559D4F0E942818EDCFEF926D
:10322000FF920F931F93CF93DF9380910B0110E0D8
:1032300006E18F3FC1F5DF91CF911F910F91FF9074
:10324000EF900895029FF001039FF00D1124E256C4
:10325000FD4FE288F388E114F10419F488ECE82EBC
:10326000F12C029FE001039FD00D1124C256DD4FC7
:103270008E818823B9F08D859E850E94B226E8163E
:10328000F90680F4109F700111248989811105C00D
:10329000C70182569D4F0E940D18C7018C559D4F46
:1032A0000E9428181F5F212F30E080910B01082E0B
:1032B000000C990B821793072CF6BDCF9093FB015E
:1032C0008093FA010895E091FA01F091FB013097A3
:1032D00021F00190F081E02D099480E00895E091C3
:1032E000FA01F091FB01309711F480E0089501900C
:1032F000F081E02D09950895E091FA01F091FB012C
:10330000309721F00280F381E02D09940895E09137
:10331000FA01F091FB01309739F022E0DC012C93A7
:103320000480F581E02D099408952091F8013091F1
:10333000F9012817390771F09093F9018093F8018A
:10334000E091FA01F091FB01309721F00680F781BE
:10335000E02D099408952091F6013091F701281786
:10336000390771F09093F7018093F601E091FA012B
:10337000F091FB01309721F00084F185E02D099454
:1033800008950E94A626609304027093050280931C
:1033900006029093070260930002709301028093EB
:1033A000020290930302089585B7806885BF85B7B0
:1033B000806885BF0895089508950C94DB190895D9
:1033C0000C94DF190E94D4198CE095E20E94092721
:1033D0000E948C0F0E94DC190C94DD1981E0089585
:1033E0000C94EE19089508950E94F2190C94F319A3
:1033F0000E9491260E94A8070E947C0C0C94E01960
:10340000BF92CF92DF92EF92FF920F931F93CF93D1
:10341000DF93CDB7DEB72A970FB6F894DEBF0FBEA5
:10342000CDBF0E94CC0781110E94C1193DEFC32E70
:1034300031E0D32E10E000E0B02E802F0E948207F2
:10344000E82EF601F1906F01F81609F457C080914B
:10345000650281FD0E9488078F2D8E25F82FF1705F
:10346000FF2E80FD44C081FD44C082FF47C092E032
:10347000D92E24E0F22E0E94F019882399F0DE82E2
:10348000BF82EF2081E009F480E088870E949A26BD
:103490008160782F9A8789874E815F8168858A85C8
:1034A0000E94A51AF801E350FE4F8081F826F082B1
:1034B0000E941E0B0E9491090E9463199091FC01C9
:1034C000891799F10E9463198093FC012A960FB61F
:1034D000F894DEBF0FBECDBFDF91CF911F910F914A
:1034E000FF90EF90DF90CF90BF900C943C05D12CD3
:1034F000C2CFDD24D39482E0F82EBDCF0F5F1F4FE3
:103500000330110509F098CF8FEF89838A831B82DE
:103510000E949A268160782F9D838C8349815A81ED
:103520006B818D810E94A51AC3CF2A960FB6F8949D
:10353000DEBF0FBECDBFDF91CF911F910F91FF90E6
:10354000EF90DF90CF90BF900895CF92DF92FF92DF
:103550000F931F93CF93DF93CDB7DEB72B970FB6A3
:10356000F894DEBF0FBECDBF7A878B87F42E052F70
:10357000162FCA84DB8461110E9439241E821D82A9
:10358000F9820A831B83DD82CC820E94D5238823A3
:1035900019F082E00E94F0240E94BC2381110E9455
:1035A000802449815A816B817C818D819E812B96FB
:1035B0000FB6F894DEBF0FBECDBFDF91CF911F9144
:1035C0000F91FF90DF90CF900C94B820FC01808188
:1035D00091810C947723CF93C82F882309F447C097
:1035E0008CEF8C0F813AA0F46C2F80910C0190919C
:1035F0000D010E94D725882329F08C2F0E94AC232F
:103600000E948E248C2F0E94A523CF910C948E248F
:1036100080E28C0F883048F4C77081E001C0880FC9
:10362000CA95EAF70E941624F0CFEBE5EC0FE330E1
:1036300040F4F0E0EE56FE4F808190E0CF910C9484
:103640009519E8E5EC0FE73150F4F0E0EE0FFF1FBD
:10365000EC59FE4F80819181CF910C94AB19C03F02
:1036600030F08C2F0E94180ACF910C94030BCF914D
:103670000895882361F19CEF980F913A20F40E94FD
:10368000AC230C948E2490E2980F983050F48770FD
:1036900091E001C0990F8A95EAF7892F0E941C24B6
:1036A000F0CF9BE5980F933020F490E080E00C94ED
:1036B000951998E5980F973120F490E080E00C94EC
:1036C000AB19803F20F00E94800A0C94030B0895F0
:1036D0001F93CF93DF93182FEB010E94EB1A2097D3
:1036E00031F4812FDF91CF911F910C94391B8FE919
:1036F0009FE00197F1F700C000002197F0CF6AE04A
:1037000070E0893311F460E570E00C94681B882345
:1037100021F00E9416240C948E240895882321F011
:103720000E941C240C948E240895BF92CF92DF92A5
:10373000EF92FF920F931F93CF93DF936C01D62FDD
:10374000C72FFC010281158112951F700E94EB2387
:10375000E82E8823A1F0E02E002389F08C2F807FB3
:10376000803429F080E28D0FE12C883040F082E037
:103770000E94F0240E94EB2391E0E82EE926BC2E63
:10378000B2949FE0B922EB2DF0E0E652FB4C0C9492
:103790003D341C2F1F70C07F11F01295107F002345
:1037A000A9F0112359F080E28D0F883010F0D1116B
:1037B00009C0812F0E9416240E948E248D2F0E9402
:1037C000EB1A14C0812F0E942C24F6CF8D2F0E945B
:1037D000391B112359F080E28D0F883010F0D11180
:1037E0002BC0812F0E941C240E948E24EB2DE850B8
:1037F000FF0B349720F40E9463190E943C05EE20D1
:1038000009F4D3C10E94D12380FDCFC1F6011282F9
:103810000E94CB230E943C22C6010E94F61D0E94FA
:10382000CB23DF91CF911F910F91FF90EF90DF900D
:10383000CF90BF900C945D22812F0E943224D4CF70
:10384000FC2FFF70FF2EC07FC03219F0F29480EF82
:10385000F822DD2371F0D130E9F1002309F444C0EE
:10386000112301F1F601858180FFA8CF8F70858338
:1038700019C00023C9F0111106C00E944C248F29E1
:103880000E94871BB3CF113031F40E944C248F2942
:103890000E946824ABCF153081F70E9480248F2DC1
:1038A0000E9452248F2DECCF111106C00E9480245B
:1038B0008F2D0E948E1B9ACF113041F40E94132449
:1038C0008F2109F493CF0E945B24F0CF153009F4C7
:1038D0008DCFECCF002321F0163008F087CFE2CF58
:1038E000153008F083CFE4CF112311F3D93309F059
:1038F00044C1FFEF27EE33E0F15020403040E1F7C4
:1039000000C000008D2F0E94391B70CF8C2F869530
:103910008695837069F0813009F068CF8D2F9C2FD8
:103920009370011102C090E080E00E94AB195ECF5D
:103930008D2F9C2F9370011102C090E080E00E94B7
:10394000951954CF8D2F002339F00E94180A0E9438
:10395000030B0E94030B4ACF0E94800AFACF8C2FE0
:10396000837009F041C0011141CF4D2F429546951A
:103970004770440F440F0D2F0F7010E030E020E02F
:10398000042E04C0000F111F221F331F0A94D2F708
:1039900060E070E0CB01D4FF0FC06FE070E080E02A
:1039A00090E004C0660F771F881F991F4A95D2F7D1
:1039B0006095709580959095C695C695C370602B5F
:1039C000712B822B932BC23049F058F4C13019F07F
:1039D0000E94EE210BCF0E94DC2108CF0E94002222
:1039E00005CF0E94DA2102CF8695002311F08C2F9B
:1039F0008170882309F4FACE4D2F42954695477081
:103A0000440F440F0D2F0F7010E030E020E0042E23
:103A100004C0000F111F221F331F0A94D2F760E069
:103A200070E0CB01D4FF0FC06FE070E080E090E069
:103A300004C0660F771F881F991F4A95D2F76095BB
:103A4000709580959095C695C695C370602B712B27
:103A5000822B932BC23049F058F4C13019F00E94E8
:103A6000B322C4CE0E94A122C1CE0E94C522BECEE6
:103A70000E941622BBCECF70002329F08C2F0E940B
:103A80003C228D2FFDCE8D2F0E948E1B8C2F0E94ED
:103A90005D22ACCED23FC9F160F4D03F09F1D13FF5
:103AA00069F1002309F45DC0111188CE8C2F8F714C
:103AB00029C0D33F79F1D43FA1F7002309F43FC0D7
:103AC0000E94B9230E941C240E94D123843061F5F6
:103AD0000E94E7248C2F8F710E945D22E12C86CEFC
:103AE000002341F0153008F081CE8C2F8F710E9499
:103AF00080227CCE163008F079CEF7CF8C2F8F71D4
:103B0000002329F20E943C2271CE8C2F8F7100235A
:103B1000C9F3BDCF002329F08C2F8F710E9427227B
:103B200065CE0E94222262CE1530C0F6CF718C2F56
:103B30000E943C2263E08C2F0E94CB24CFCF0E94B6
:103B4000B9230E941624153040F00E94E7240E94F9
:103B50005B2464E08C2F8F71EFCF81E00E94F02412
:103B6000BDCF112379F0D93341F49FEFE7EEF3E0B5
:103B70009150E040F040E1F7C3CE8FE39CE901971C
:103B8000F1F7BECE8C2F8F7182CF4C2F4F706D2FDF
:103B9000C6010E9444050E94522128CE4C2F4F702E
:103BA0006D2FC6010E94470521CEDF91CF911F9155
:103BB0000F91FF90EF90DF90CF90BF9008950F93FB
:103BC0001F93CF93DF93EC01688179818A810E94F2
:103BD00081238C010E94D7220E94D921B801CE01F5
:103BE000DF91CF911F910F910C94951BCF93DF9391
:103BF000EC018B819C81892B29F088819981892313
:103C00008F3F59F4DF91CF910895CE010E94DF1DBF
:103C1000CE01DF91CF910C945503CE010E944F0449
:103C20008111F3CF0E94EB23882361F38A818823DB
:103C300049F382E0DF91CF910C94F024882321F0A6
:103C40000E942C240C948E240895882321F00E9435
:103C500032240C948E24089590E080E00E949519FF
:103C600090E080E00E94AB190E9439240E94492410
:103C70000E948E240E942A0C0C94030B0E94B323F2
:103C80000C942C1E0E9426240C943E1EE92FE295D3
:103C9000EF70E250EE3070F4F0E0E651FB4C0C9423
:103CA0003D34803F19F020F4883E20F481E00895EF
:103CB000843FE1F380E00895883EC0F3813FD1F76F
:103CC000F5CF93FB882780F908950E9477230C9401
:103CD000461ECF93DF9300D000D00F92CDB7DEB752
:103CE0000F900F900F900F900F90DF91CF9108954C
:103CF000CF93DF9300D000D000D0CDB7DEB72696AB
:103D00000FB6F894DEBF0FBECDBFDF91CF910895FF
:103D10001F93CF93DF93C091090216E080910A02AE
:103D20008C1304C0DF91CF911F910895D0E01C9FA8
:103D3000F0011D9FF00D1124E55FFD4F4081518181
:103D400062817381848195810E94781E2196C7705B
:103D5000E5CF40913B0250913C0260913D02709151
:103D60003E0280913F02909140020C94781E1F9376
:103D7000CF93DF9380914002807FA9F480913D0230
:103D8000882389F080910902C0910A0260913B0268
:103D900070913C02A0913E02B0913F02D62FD723F2
:103DA00016E0C81304C0DF91CF911F91089590E0F1
:103DB000109711F0DF3F19F401968770F2CF189F2A
:103DC0009001199F300D1124F901E55FFD4F4181EC
:103DD0004713F2CF40814613EFCF42814111ECCF20
:103DE000438154814A1B5B0B483C510528F7809165
:103DF00040028F70806180934002F901E05FFD4FC7
:103E000080818F70806180838BE392E00E94F61D39
:103E1000DF91CF911F910C94881EAF92BF92CF92E9
:103E2000DF92EF92FF920F931F93CF93DF93CDB763
:103E3000DEB761970FB6F894DEBF0FBECDBF8C0121
:103E400085E0F801DE011D9601900D928A95E1F75B
:103E5000F80140815181E2808BE3C82E82E0D82EA8
:103E600060913E0270913F026115710509F461C1D4
:103E700090913B0220913C02892F82238F3F09F4CD
:103E800058C1A380B480F0903D02F501E61BF70B0A
:103E9000FF2009F4FCC080914002382F307FE83CBD
:103EA000F10508F0B2C0311179C0FE2C251323C0F2
:103EB000941321C0E1101FC08F7080618093400275
:103EC0000E94A91EC6010E94F61D80914002F801C1
:103ED00085838F2D61960FB6F894DEBF0FBECDBFE0
:103EE000DF91CF911F910F91FF90EF90DF90CF90D6
:103EF000BF90AF900895AB2829F0842F85238F3F82
:103F000009F033C180E0F82FF170DF2E80FF3CC054
:103F10008091090220910A0236E0821315C04D8774
:103F20005E878D859E850E947723292F22952F708D
:103F30002230F0F0243018F59F70F1F0F8019581EF
:103F4000907FD1F4D12C1EC090E0389FF001399FB2
:103F5000F00D1124E55FFD4F6181651306C060819E
:103F6000641303C062816E110FC001968770D5CFB4
:103F70009F7011F0882331F3805E883018F3C801F8
:103F80000E94F61DFD2CA5CFEE2009F4A2CF809152
:103F90004002816080934002F12C9BCF251306C024
:103FA000941304C0F801EE2009F48DC04D875E879C
:103FB0008D859E850E94651E882319F1EE2009F1EA
:103FC00080914002803270F020913B0230913C029F
:103FD00038872F831986BB86AA868C87CE010796E1
:103FE0000E94F61D86E0F801ABE3B2E001900D926D
:103FF0008A95E1F70E94B71E0E94A91EFF24F39440
:1040000068CFC8010E94F61DF9CF311113C07A2D77
:10401000B98AA88A6E2D89890E94691E8BE392E075
:104020000E94F61D86E0F60111928A95E9F70E943A
:10403000A91EB2CF25130FC094130DC0E1100BC001
:10404000F8018583C8010E94F61D86E0F6011192F1
:104050008A95E9F73ECF4D875E878D859E850E94C4
:10406000651E882371F2EE2061F280914002803259
:1040700008F4B8CF20913B0230913C023A83298367
:104080001B82BD82AC828E83CE010196A9CFE83C13
:10409000F10508F041C0FE2CEE2009F4B2CF251343
:1040A0002AC0941328C08091400280FD1BC0982F25
:1040B000907FC1F0F8018583903F31F0982F907F79
:1040C000905F8F70892B8583C8010E94F61D86E062
:1040D000F801ABE3B2E001900D928A95E1F70E94FE
:1040E000A91EF7CE86E0F801ABE3B2E001900D9295
:1040F0008A95E1F7EECE4D875E878D859E850E947D
:10410000651E81116FCF80914002816080934002D3
:10411000C8010E94F61DDDCE7A2DB98AA88A6E2DBF
:1041200089890E94691E86E0F60111928A95E9F755
:10413000D6CFEE2009F465CF4D875E878D859E85AD
:104140000E94651EF82E882309F45BCF86E0F801F3
:10415000ABE3B2E001900D928A95E1F78BE392E038
:104160000E94E61A0E94B71EBACF81E08E25CBCE00
:104170001F93CF93DF93CDB7DEB72C970FB6F8948C
:10418000DEBF0FBECDBF4F83588769877A878B8785
:104190009C87CE0107960E940D1F882369F08A85AF
:1041A0009B85892B39F04F815885842F85238F3F3C
:1041B00009F071C016E05FC086E0FE013796DE01AF
:1041C000119601900D928A95E1F78A859B85892B3E
:1041D00089F38F81988589238F3F61F320910A02AB
:1041E00030E0C9010196877099274091090248176C
:1041F000190671F40E94421E10920A0210920902DE
:1042000086E0EBE3F2E0DF011D928A95E9F7D2CF79
:1042100096E0929FD001939FB00D1124A55FBD4FF2
:10422000FE01319601900D929A95E1F780930A0272
:104230000E94881EBFCF819FC0011124855F9D4FC2
:104240000E940D1F8823E9F0E09109021E9FF001F2
:104250001124E55FFD4F408151816281738184812A
:1042600095810E94781E8091090290E001968770E6
:104270009927809309028091090290910A0289137B
:10428000DACF2C960FB6F894DEBF0FBECDBFDF910C
:10429000CF911F91089569857A858B859C850E94B1
:1042A000781E88CFEF92FF920F931F93CF93DF93E7
:1042B0008C01892B81F0F12CEE24E394E801219606
:1042C000F8018491843770F4843008F05FC0813045
:1042D000B1F08230A1F1DF91CF911F910F91FF904A
:1042E000EF900895853709F44CC008F43DC09CE771
:1042F000980F903780F78F770E94391B49C00E5F67
:104300001F4FFE01849190E2980F983060F48770FF
:10431000FE2D01C0FF0F8A95EAF78F2F0E943C24E3
:104320000E948E2402C00E94EB1A8F2D815030F221
:10433000EFE9FFE03197F1F700C00000F7CF0E5F23
:104340001F4FFE01849190E2980F983050F48770CF
:10435000FE2D01C0FF0F8A95EAF78F2F0E9442249D
:10436000DFCF0E94391BE1CF0E5F1F4FFE01C491CA
:10437000C150D8F28FE99FE00197F1F700C000002B
:10438000F7CF0E5F1F4FFE01F490CFCF0E94EB1AC4
:104390008E01CBCF08950C94CA210E94CB2160934B
:1043A0004F027093500280935102909352020C94EA
:1043B0002C1E08950C94CD210F931F9300914F0252
:1043C000109150022091510230915202602B712BBA
:1043D000822B932B1F910F910C94CD210F931F9340
:1043E00000914F02109150022091510230915202DF
:1043F00060237123822393231F910F910C94CD216D
:104400000F931F9300914F0210915002209151027F
:104410003091520260277127822793271F910F91B5
:104420000C94CD210C94CA210C9412220E941422C7
:1044300060934B0270934C0280934D0290934E0216
:104440000C942C1E60E070E0CB010C9416220F93AC
:104450001F9341E050E060E070E08A019B0104C0DE
:10446000000F111F221F331F8A95D2F7C901B8010F
:104470001F910F910C9416220F931F9341E050E06F
:1044800060E070E004C0440F551F661F771F8A95D7
:10449000D2F780914B0290914C02A0914D02B091C5
:1044A0004E028A019B01082B192B2A2B3B2BC90199
:1044B000B8011F910F910C9416220F931F9341E0A6
:1044C00050E060E070E004C0440F551F661F771F86
:1044D0008A95D2F7CB01BA01609570958095909539
:1044E00000914B0210914C0220914D0230914E02EE
:1044F00060237123822393231F910F910C94162222
:104500000F931F9341E050E060E070E004C0440F5F
:10451000551F661F771F8A95D2F780914B029091A5
:104520004C02A0914D02B0914E028A019B010827D6
:1045300019272A273B27C901B8011F910F910C9415
:1045400016220F931F9300914B0210914C02209161
:104550004D0230914E02602B712B822B932B1F91B9
:104560000F910C9416220F931F9300914B02109100
:104570004C0220914D0230914E0260237123822320
:1045800093231F910F910C9416220F931F93009168
:104590004B0210914C0220914D0230914E02602747
:1045A0007127822793271F910F910C94162208954B
:1045B0009E3F69F1292F220FE22FE90FE80F8E2F7E
:1045C000877041E001C0440F8A95EAF7E695E695C9
:1045D000E69585E0E89FF0011124EF5BFD4F30E0A8
:1045E00020E070E05191DF011197CB01022E02C053
:1045F000969587950A94E2F78170819585278423A3
:1046000085278C932F5F3F4F2530310559F708954B
:104610009E3F49F1292F220FE22FE90FE80F9E2F2D
:104620009770E695E695E69585E0E89FF001112400
:10463000EF5BFD4F50E040E080E0219130E0092E3B
:1046400002C0369527950A94E2F721703327042E8D
:1046500001C0220F0A94EAF7822B4F5F5F4F45306B
:10466000510559F7089580E00895BF92CF92DF92E7
:10467000EF92FF920F931F93CF93DF938C01C09023
:104680004B02D0904C02E0904D02F0904E0280918F
:104690004F0290915002A0915102B0915202C82A4B
:1046A000D92AEA2AFB2ACFE1D0E0BC2ED701C601E5
:1046B0000C2E04C0B695A795979587950A94D2F7C6
:1046C00080FD0EC0219788F7B12C8B2DDF91CF9103
:1046D0001F910F91FF90EF90DF90CF90BF900895C2
:1046E000B8018C2F0E945005019761F3EECFCF9354
:1046F000DF93EC010E943523BE01DF91CF910C9432
:1047000050051F93CF93DF93EB01909108029923FB
:1047100031F0CB01DF91CF911F910C947723882347
:1047200079F0CB010E943523182F682FCE010E940B
:10473000D822BE01812FDF91CF911F910C9450059B
:10474000CB010E940823182FF4CF682F80910C0111
:1047500090910D010C940D26682F80910C01909181
:104760000D010C940F2680910C0190910D010C9479
:1047700011268091580208950E949A26209156028F
:1047800030915702821B930B9C0181E02838334102
:1047900008F480E00895809155028595859585956A
:1047A000089580915502877008950E949A2620915D
:1047B000530230915402821B930B8838934148F086
:1047C0008091550282FB882780F991E089278170CA
:1047D000089580E0FCCF90915502977081E009F434
:1047E00080E008959091970292FB222720F92817E4
:1047F00051F080FB92F990939702809196029091EC
:1048000097020C943A2508958091970282FB88279D
:1048100080F991E089270C94F22381E00C94F22333
:1048200080E00C94F22380916402089590916402D8
:10483000892B809364020895809590916402982357
:104840009093640208958093640208951092640224
:10485000089580916302089590916302892B80935B
:104860006302089580959091630298239093630268
:10487000089510926302089590916202892B8093AB
:10488000620208958095909162029823909362024B
:104890000895109262020895809159020895089532
:1048A0000C944F2490915802981721F0809358024D
:1048B0000C945024089580915802882329F0109276
:1048C000580280E00C945024089508950C946524B7
:1048D000CF93C82F8091970282FD10C0809159021A
:1048E0008C1761F00E949A2690935702809356028B
:1048F000C09359028C2FCF910C946624CF910895C8
:1049000080915902882349F010925902109257025F
:104910001092560280E00C9466240895E0910C01F8
:10492000F0910D01809164028083E0910C01F0917F
:104930000D01808190916302892B8083E0910C01AD
:10494000F0910D01808190916202892B808380918A
:1049500059028823B9F00E94BC2381110E9480244F
:10496000E0910C01F0910D01808190915902892B09
:10497000808380910C0190910D010E94C5258111C9
:104980000E94802480910C0190910D010C947C195F
:1049900008950C94C8249091970292FD16C098E057
:1049A000899F90011124622B609355020E943C2242
:1049B0000E949A269093540280935302809155024C
:1049C0008595859585950C94C9240C943C2210926C
:1049D0005502109254021092530280E00C94C924A4
:1049E000909155028095892380935502282F277036
:1049F00039F4282F082E000C330B9217130621F4DC
:104A00009091970292FF07C08595859585950E94A4
:104A10005D220C94E724089580E008956FEF7FEF06
:104A200090E080E00C949F3490E080E00E947B3422
:104A300021E08A3E9E4F09F020E0822F089582E017
:104A400090E00C94733483E090E00C947334682FFE
:104A500083E090E00C948134CF9384E090E00E9456
:104A60007334C82F82E290E00E947334982F8C2F09
:104A7000CF910895CF93C92F682F84E090E00E94D2
:104A800081346C2F82E290E0CF910C948134AB01A1
:104A9000BC018FE090E00C949334AB01BC0183E146
:104AA00090E00C94933460E070E0CB010C944D25C1
:104AB00060E070E0CB010E9447250C9453256AEE1C
:104AC0007EEF90E080E00E949F3460E082E090E022
:104AD0000E94813460E083E090E00E948134109273
:104AE0004F0210925002109251021092520260E056
:104AF00084E090E00E94813460E082E290E00E94D5
:104B0000813460E085E090E00E94813460E086E0DE
:104B100090E00E9481346FEF87E090E00E94813442
:104B200040E050E0BA0188E090E00E94933460E0F9
:104B30008DE090E00E94813440E050E0BA0188E1CD
:104B400090E00E94933460E087E190E00E9481341D
:104B500040E050E0BA018CE190E00E94933470E0B4
:104B600060E080E290E00E949F3440E050E0BA01B3
:104B700088E190E00E9493340C9458250C945F25B2
:104B8000682F8EE090E00C9481349C012E5F3F4FA3
:104B9000AC01485F5F4F80E02417350709F40895A2
:104BA000F90191919F019923B9F38F5FF5CF6623A6
:104BB00049F0FC01329608962191261729F0E81752
:104BC000F907D1F780E0089581E008959C01FC0188
:104BD00032969FEF80E04191461751F09F3F19F4C4
:104BE000411101C0982F8F5F8630A9F79F3F09F4CC
:104BF0000895290F311D97FD3A95F90162830895B3
:104C0000FC01329608962191261303C0DF0111970B
:104C10001C92E817F907B9F708950C94E6250C944F
:104C20000026029626E0FC0111922A95E9F70895E4
:104C3000089508950C94192680917304843049F1E5
:104C40000E941A2680E00E943C051092660288E1CC
:104C500090E020E40FB6F894A895809360000FBE12
:104C60002093600083B7817F846083BF83B78160B6
:104C700083BF7894889583B78E7F83BF0FB6F894EF
:104C8000A895809160008861809360001092600018
:104C90000FBE08950895CF930E9418260E94CC0756
:104CA0000E944A26C0E08C2F0E948207811105C015
:104CB000CF5FC330C1F7CF91089581E0FCCF089555
:104CC0000C945F260E94421E0E9463190E943C05BC
:104CD0000C9460261F921FB61F9211248F939F93EE
:104CE000AF93BF9380916602811113C080917E03C0
:104CF00090917F03A0918003B09181034196A11D03
:104D0000B11D80937E0390937F03A0938003B093A3
:104D10008103BF91AF919F918F911F901FBE1F90F4
:104D2000189582E084BD93E095BD9AEF97BD80937E
:104D30006E0008952FB7F89480917E0390917F03C1
:104D4000A0918003B09181032FBF08952FB7F894ED
:104D500060917E0370917F03809180039091810325
:104D60002FBF08959C014FB7F89480917E039091D6
:104D70007F03A0918003B09181034FBF821B930BEF
:104D8000089578941F921FB61F9211248F939F93BA
:104D9000AF93BF9380917E0390917F03A091800396
:104DA000B09181030196A11DB11D80937E03909364
:104DB0007F03A0938003B0938103BF91AF919F9134
:104DC0008F911F901FBE1F90189581E08093E00087
:104DD00080E28093D8001092C9008FE19EE4019791
:104DE000F1F700C0000087E090EBDC0180937C04C9
:104DF00090937D04A0937E04B0937F0488E19CE0AF
:104E00000FB6F894A895809360000FBE9093600051
:104E1000FFCF9093B5018093B4010895881F882730
:104E2000881F089591E0883F08F490E0892F089545
:104E3000982F907F903BE9F040F49039D1F0903A70
:104E4000C1F09038B1F080E00895903D19F020F461
:104E5000903CC9F782E00895903E59F0903F99F751
:104E6000815F8F3080F7E82FF0E0EB56FE4F8081B6
:104E7000089583E008950F93DC01ED91FC9109956D
:104E80000F9108956F927F928F929F92AF92BF92EF
:104E9000CF92DF92EF92FF920F93CF93DF9300D0E8
:104EA0000F92CDB7DEB74C015B013A01F12CE12C3A
:104EB000EA14FB0488F00F900F900F90DF91CF91D0
:104EC0000F91FF90EF90DF90CF90BF90AF909F90A9
:104ED0008F907F906F90089519821A821B826501CE
:104EE000CE18DF0884E0C816D10418F083E0C82E7D
:104EF000D12CB3016E0D7F1DA601CE0101960E943B
:104F000053340B812A814981B601C4010E943B2799
:104F100083E0E80EF11CCCCFFC017383628308951B
:104F2000FC01738F628F0895FC01758F648F089563
:104F3000CF93DF93EC011DA21FA21EA2BC01685DEE
:104F40007F4F40EC88519F4F0E94A3291B821A82F9
:104F50001D821C821F821E82198618861B861A8655
:104F60001D861C861F861E86198A188A1B8A1A8A25
:104F70001D8A1C8A1F8A1E8A198E188E1B8E1A8EF5
:104F80001D8E1C8E1F8E1E8E19A218A2DF91CF912E
:104F90000895EF92FF920F931F93CF93DF93EA014F
:104FA0008A01060F111D88519F4F7C01C017D10740
:104FB00039F4DF91CF911F910F91FF90EF900895F9
:104FC0006991C7010E94AA29F1CFFC017183608316
:104FD0000895FC0171A360A30895AF92BF92CF9290
:104FE000DF92EF92FF920F931F93CF93DF9300D046
:104FF0000F92CDB7DEB77C016B01142FB22EA02E1D
:10500000DC0195968C9195978430A9F55A96ED918F
:10501000FC913097E9F1CB01019763E070E00E94C9
:105020001534CB01880F991F860F971F4983BA82C9
:105030000B834C2D481B9E012F5F3F4FBC01C701C6
:105040000995D7015E96ED91FC91309731F00A2DCC
:105050002B2D412FB601C70109950F900F900F908E
:10506000DF91CF911F910F91FF90EF90DF90CF9044
:10507000BF90AF9008956230710509F455C0633058
:10508000710599F06130710509F481C0D12CC12CF2
:10509000D7015C96ED91FC91309799F20A2D2B2D5A
:1050A000412FB601C7010995CCCF842F807F803A6C
:1050B00011F148F48038D1F0803951F7D7011496B6
:1050C000ED91FC910AC0803ED9F0803FF1F0803B29
:1050D000F9F6D7011296ED91FC913097C9F2123F83
:1050E000E9F02A2D4B2D612F6F701BC0D70116964A
:1050F000ED91FC91F2CFD7011896ED91FC91EDCF97
:10510000D7011A96ED91FC91E8CF423F09F6D701FD
:105110001C96ED91FC91309709F4BACF2A2D4B2DB6
:1051200062EFC70109958DCF842F807F803DB1F05C
:10513000803FC9F0803C09F0ABCFD7011E96ED91BE
:10514000FC91309709F4A4CF812F8D7F4B2D612FD7
:105150006F70813F89F0C701099573CFD7015096D1
:10516000ED91FC91EECF433F51F4D7015296ED9172
:10517000FC91309709F48CCF4B2D612FECCF413F40
:1051800009F086CFD7015496ED91FC91F2CF842F90
:105190000E941227882359F0D7015696ED91FC9171
:1051A000309709F475CF612FC70109954ACF163F93
:1051B00009F06ECFD7015896ED91FC91F1CFFF9297
:1051C0000F931F93CF93DF93EC01162F862F0E942E
:1051D0001227882391F0FDA081E08DA300E020E05C
:1051E000412F61E070E0CE010E94ED27FDA2DF912A
:1051F000CF911F910F91FF900895812F0E940E274C
:105200004DA1882309F443C0443029F01AA381E05A
:1052100090E09FA38EA3812F0E941827813051F028
:105220008823A9F0823089F0833079F01DA21FA273
:105230001EA2DDCF8DA300E020E0412F61E070E0F1
:10524000CE010E94ED271DA2D2CF8DA3D0CF103F5B
:10525000B1F0173F59F72EA13FA1C90163E070E0FB
:105260000E941534FE01E80FF91F12A3B9016F5F08
:105270007F4F7FA36EA30CA12BA14AA1E1CF84E0B5
:105280008DA31AA381E090E09FA38EA3B0CF442307
:1052900009F4ADCF2EA13FA1C90163E070E00E94E7
:1052A0001534FE01E80FF91F12A3B9016F5F7F4F9C
:1052B0007FA36EA38130910569F0029709F097CF23
:1052C0000CA12BA14AA1CE010E94ED278DA1843013
:1052D000C9F68DCF00E0423009F089CFF2CFCF92EE
:1052E000DF92EF92FF920F931F93CF93DF93EC0126
:1052F000E8A1F9A1309709F009956E0188EEC80E72
:10530000D11CC6010E94D92910E000E0E82EF12C42
:105310000E151F0548F0DF91CF911F910F91FF905F
:10532000EF90DF90CF90089560E0C6010E94ED29D4
:10533000682FCE010E94DF2861E0C6010E94FD298E
:105340000F5F1F4FE5CFFC0142837483638311829B
:10535000108208951F93CF93DF93EC01162F0E94C4
:10536000142A482F298130E0C90101966A8170E032
:105370000E94293458815817190641F4842F0E943D
:10538000172A80E0DF91CF911F9108958B819C8136
:10539000280F391FF9011083898190E001966A81F5
:1053A00070E00E9429348983842F0E94172A81E0AB
:1053B000E9CFCF93DF93EC010E94142A99812881D1
:1053C000921740F0C92FC21B0E94172A8C2FDF9121
:1053D000CF910895CA819C0FF5CFFC018081860F83
:1053E0009927991F628170E00E94293423813481BA
:1053F000280F391FF901808108951F93CF93DF9300
:10540000EC01162F0E94142A282F8881810F9927DA
:10541000991F6A8170E00E9429348883822FDF916E
:10542000CF911F910C94172A8FB7F89408958FBFCE
:105430000895482F47709C0183E0369527958A95FB
:10544000E1F757E0529FC001539F900D1124442370
:1054500019F00197840F911D08958F929F92BF922A
:10546000CF92DF92EF92FF920F931F93CF93DF9330
:105470004C01EB017A01CA0167E070E00E9415342B
:105480008E01D40130E020E02617370709F046C02E
:10549000C70167E070E00E941534D90143E0AA0F0C
:1054A000BB1F4A95E1F7009761F1F401EA0FFB1F7A
:1054B000108267E0629FA001639F500D11248E014E
:1054C000040F151F30E020E0E80179918E012F5F75
:1054D0003F4F472F407850E0022E02C05595479528
:1054E0000A94E2F75081452B4083AF01420F531FCE
:1054F0007F77EA0178838217930731F70196A80F27
:10550000B91FCD01DF91CF911F910F91FF90EF90C7
:10551000DF90CF90BF909F908F9008951C92A8012C
:1055200090E080E0FA01B190AF010196FB2DF07898
:10553000CF2ED12C082E02C0D594C7940A94E2F73E
:10554000DC90CD28CC926D01C80ED91EE894B7F836
:10555000F601B0828730910529F72F5F3F4F095F31
:105560001F4F189691CF6F927F929F92AF92BF92EA
:10557000CF92DF92EF92FF920F931F93CF93DF931F
:105580003C0190E080E04230510560F15A0183E037
:10559000B694A7948A95E1F78301EB01B0E0A0E00F
:1055A000AA15BB0569F5242F277037E03A9FC00183
:1055B0003B9F900D11242223A9F0487F640F751F93
:1055C000EB015301A80EB91EB0E0A0E0422F50E05D
:1055D0008A01015011092196A017B107B0F1019776
:1055E000840F951FDF91CF911F910F91FF90EF9046
:1055F000DF90CF90BF90AF909F907F906F90089575
:10560000780181E090E09E01280F391FF901208187
:10561000922EE89497F8F70191927F016F01F1E0E3
:10562000CF1AD1082881082E01C0220F0A94EAF768
:1056300020782929F601208301968830910519F7F1
:105640001196095F1F4F2896ABCF2881D22EE89480
:10565000D7F8F501D1925F0111967F01F1E0EF1AC1
:10566000F108FB013081232F0A2E01C0220F0A947A
:10567000EAF720782D29F7012083ADCF089508950A
:10568000EF92FF920F931F93CF93DF93CDB7DEB7C7
:10569000A0970FB6F894DEBF0FBECDBFF9018B0106
:1056A0000450110990E080E08417C8F417FD2BC066
:1056B000DF01A80FB91F3C91373FF1F4C8010E94E8
:1056C000192A7C01A80167E672E0CE0101960E94CA
:1056D000B32ABE016F5F7F4FC7010E94DB08A0960F
:1056E0000FB6F894DEBF0FBECDBFDF91CF911F91F3
:1056F0000F91FF90EF9008950532110584F7D801BE
:10570000A959BD4F3C930F5F1F4F0196CDCF0F930B
:105710001F93CF93DF9300D000D000D00F92CDB76E
:10572000DEB78C01CE0101960E943E2E81110BC086
:1057300027960FB6F894DEBF0FBECDBFDF91CF9195
:105740001F910F9108958A810E9418279A819D8345
:105750009B819E839C819F8381110AC089818430B3
:1057600079F0873069F0863069F08530D9F681E0CC
:10577000AE014B5F5F4F682FC8010E94C927D2CF8F
:1057800083E0F6CF82E0F4CFDF92EF92FF920F93A7
:105790001F93CF93DF9300D000D0CDB7DEB77B014E
:1057A000142FD22E4A832B830C83842F0E94182718
:1057B000811129C082E0E816F10401F183E0E816C6
:1057C000F10439F0EA94EF2869F485E0173F21F4F9
:1057D00004C087E0073F09F084E08983CE01019689
:1057E0000E94392E0F900F900F900F90DF91CF9164
:1057F0001F910F91FF90EF90DF90089587EFD812DF
:10580000EBCF86E0EACF12951F701983E7CF82E8CD
:1058100093E00E94982764EC7BE282E893E00E9488
:10582000E52767E87BE282E893E00E94E9276EE3E0
:105830007BE282E893E00E9494276FE37BE282E8B8
:1058400093E00E948C2760E47BE282E893E00C9472
:1058500090279B01409173044430C1F4FC01918175
:105860009F709093E90050E040E064E070E0C9016F
:105870000E94352F81110BC09091E80095FD07C063
:105880009091E8009E779093E800089582E0089553
:1058900020917304243091F4FC0181818F708093F6
:1058A000E9009091F3008091F200892B49F08091FA
:1058B000E8008E778093E8000C94E33082E008954E
:1058C00080E00895FC0180917304843059F4918143
:1058D0009F709093E9008091E80080FF03C0CF01A2
:1058E0000C94482C08959B0140917304443011F0AE
:1058F00080E00895FC0196819F709093E90080916B
:10590000E80082FFF5CF8091E80085FFF1CF50E0FD
:1059100040E064E070E0C9010E94842F8091E800BB
:1059200085FD05C08091E8008B778093E80081E0D9
:105930000895809194020895CF93DF9300D00F9241
:10594000CDB7DEB790917304943011F589837B83D2
:105950006A839093E9008FEF9091E800815095FD64
:1059600006C095ED9A95F1F700008111F5CF809171
:10597000E80085FF0DC050E040E063E070E0CE013C
:1059800001960E94352F8091E8008E778093E80081
:105990000F900F900F90DF91CF910895BC0184E09C
:1059A0000C949C2CBC0183E00C949C2C9C0184E006
:1059B0008093E9009FEF8091E800915085FD06C03B
:1059C00085ED8A95F1F700009111F5CF8091E800FF
:1059D00085FF0CC050E040E066E070E0C9010E9425
:1059E000352F8091E8008E778093E8000895CF935B
:1059F000DF93EC0181E08093E9008FEF9091E80064
:105A0000815095FD06C095ED9A95F1F70000811142
:105A1000F5CF8091E80085FF14C050E040E068E0D9
:105A200070E0CE010E94352F8091E8008E77809340
:105A3000E80088E0FE01ACE8B2E001900D928A95A2
:105A4000E1F7DF91CF910895CF93FC01603221F50A
:105A500080917304843001F5C091E900CF702091EA
:105A6000EC00922F917020FD90E8C92B82E080938A
:105A7000E9008091E80080FF0CC050E040E060E267
:105A800070E0CF010E94352F8091E8008E778093DF
:105A9000E800CF70C093E900CF910895809172041F
:105AA000811109C00E9414310E9471318091E2007D
:105AB00084608093E200089510927204089508951E
:105AC0000895089542E061EC81E00E94903042E246
:105AD00061EC84E00E94903042E261EC82E00E943E
